:020000040000FA
:020000000528D1
:040002000034003492
:02000800972837
:06000A00831603178801B4
:10001000890183160313F03086008801870183125B
:10002000031387018801F0308600831603138113C0
:1000300083160313F030950083120313A301A50167
:10004000A401AB013F30A600A700A800A9008316B9
:100050000313F0309600831203138B170B108B15CC
:1000600067202B1C352836202B10302883120313D1
:100070002B10A820A1010430A000FE30A20022080D
:100080008600061E5228A10A861E5228A10A061FB3
:100090005228A10A861F5228A10A0314A20DA00B00
:1000A0003F28632821088620A3000608F039F03A8B
:1000B000031D5528A8202708A6002808A7002908FE
:1000C000A8002308A900F030860006080800831263
:1000D00003138830AA00260887002A088800A82071
:1000E000880127088700AA0C2A088800A820880110
:1000F00028088700AA0C2A088800A8208801290857
:100100008700AA0C2A088800A820080082073F342C
:1001100006345B344F3466346D347D3407347F34B9
:100120006F345F347C3439345E347B347134831201
:100130000313A400030EA5000B1CA32883120313B2
:1001400006082B140B10250E8300A40E240E0900A4
:100150005530B5002030B600B60BAC28B50BAA2838
:02016000080095
:02400E00E12FA0
:02401000FF3F70
:00000001FF
